:100000000000022031400408AD4804089948040863
:10001000B1480408B5480408B948040800000000C5
:10002000000000000000000000000000A1C2040861
:10003000BD4804080000000031C30408D1B604081C
:100040002D4004082D4004082D4004082D400408CC
:100050002D4004082D4004082D4004082D400408BC
:100060002D4004082D4004082D4004082D400408AC
:1000700099C205082D4004082D4004082D400408AD
:100080002D4004082D40040831AE05082D40040819
:100090002D4004082D4004082D400408ADB6050885
:1000A0002D4004082D4004082D4004082D4004086C
:1000B000D5BD0508E1BD0508EDBD05082D400408C6
:1000C0002D4004082D4004082D400408C1BB05083C
:1000D0002D400408D9C005082D4004086DC105084D
:1000E000B5B605082D4004082D4004082D4004082D
:1000F0002D4004082D4004082D4004082D4004081C
:100100002D4004082D4004082D4004082D4004080B
:100110002D4004082D4004082D400408F9BD0508B1
:1001200099AE0508A5C20508B1C20508A5AE050827
:100130002D40040875B505082D4004082D4004081D
:100140002D4004082D4004082D4004082D400408CB
:100150002D4004082D4004082D40040801C2050864
:100160002D4004082D4004082D4004082D400408AB
:100170002D4004082D4004082D4004080000000014
:100180002D4004082D40040800000000000000007D
:1001900081F0004102E000BF83F0004330B54FEA38
:1001A00041044FEA430594EA050F08BF90EA020FA5
:1001B0001FBF54EA000C55EA020C7FEA645C7FEA38
:1001C000655C00F0E2804FEA5454D4EB5555B8BF5B
:1001D0006D420CDD2C4480EA020281EA030382EACC
:1001E000000083EA010180EA020281EA0303362D5E
:1001F00088BF30BD11F0004F4FEA01314FF4801C31
:100200004CEA113102D0404261EB410113F0004F42
:100210004FEA03334CEA133302D0524263EB4303F9
:1002200094EA050F00F0A780A4F10104D5F1200E97
:100230000DDB02FA0EFC22FA05F2801841F10001F2
:1002400003FA0EF2801843FA05F359410EE0A5F1C6
:1002500020050EF1200E012A03FA0EFC28BF4CF0F7
:10026000020C43FA05F3C01851EBE37101F00045AD
:1002700007D54FF0000EDCF1000C7EEB00006EEBBA
:100280000101B1F5801F1BD3B1F5001F0CD3490844
:100290005FEA30004FEA3C0C04F101044FEA44529B
:1002A00012F5800F80F09A80BCF1004F08BF5FEA22
:1002B000500C50F1000041EB045141EA050130BD02
:1002C0005FEA4C0C404141EB0101013C28BFB1F514
:1002D000801FE9D291F0000F04BF01460020B1FA5F
:1002E00081F308BF2033A3F10B03B3F120020CDA32
:1002F0000C3208DD02F1140CC2F10C0201FA0CF010
:1003000021FA02F10CE002F11402D8BFC2F1200C74
:1003100001FA02F120FA0CFCDCBF41EA0C0190402A
:10032000E41AA2BF01EB0451294330BD6FEA040473
:100330001F3C1CDA0C340EDC04F11404C4F120025E
:1003400020FA04F001FA02F340EA030021FA04F370
:1003500045EA030130BDC4F10C04C4F1200220FAC7
:1003600002F001FA04F340EA0300294630BD21FA05
:1003700004F0294630BD94F0000F83F4801306BFCB
:1003800081F480110134013D4EE77FEA645C18BFBF
:100390007FEA655C29D094EA050F08BF90EA020F56
:1003A00005D054EA000C04BF1946104630BD91EA4E
:1003B000030F1EBF0021002030BD5FEA545C05D151
:1003C0004000494128BF41F0004130BD14F5800490
:1003D0003CBF01F5801130BD01F0004545F0FE4104
:1003E00041F470014FF0000030BD7FEA645C1ABF39
:1003F000194610467FEA655C1CBF0B46024650EA70
:10040000013406BF52EA033591EA030F41F400219B
:1004100030BD00BF90F0000F04BF0021704730B521
:100420004FF4806404F132044FF000054FF00001F6
:1004300050E700BF90F0000F04BF0021704730B5B7
:100440004FF4806404F1320410F0004548BF40428C
:100450004FF000013EE700BF42004FEAE2014FEAE1
:1004600031014FEA02701FBF12F07F4393F07F4FBC
:1004700081F06051704732F07F4208BF704793F0BF
:100480007F4F04BF41F40021704730B54FF46074D2
:1004900001F0004521F000411CE700BF50EA0102D5
:1004A00008BF704730B54FF000050AE050EA01027E
:1004B00008BF704730B511F0004502D5404261EBEE
:1004C00041014FF4806404F132045FEA915C3FF42F
:1004D000D8AE4FF003025FEADC0C18BF03325FEACC
:1004E000DC0C18BF033202EBDC02C2F1200300FA7D
:1004F00003FC20FA02F001FA03FE40EA0E0021FAA2
:1005000002F11444BDE600BF4FF0FF3C06E000BF1F
:100510004FF0010C02E000BF4FF0010C4DF804CD8C
:100520004FEA410C7FEA6C5C4FEA430C18BF7FEA4C
:100530006C5C1BD001B050EA410C0CBF52EA430C7A
:1005400091EA030F02BF90EA020F0020704710F1FA
:10055000000F91EA030F58BF994208BF90422CBF89
:10056000D8176FEAE37040F0010070474FEA410C82
:100570007FEA6C5C02D150EA013C07D14FEA430CA0
:100580007FEA6C5CD6D152EA033CD3D05DF8040B11
:10059000704700BF8446104662468C461946634643
:1005A00000E000BF01B5FFF7B7FF002848BF10F11A
:1005B000000F01BD4DF808EDFFF7F4FF0CBF01205F
:1005C00000205DF808FB00BF4DF808EDFFF7EAFFDB
:1005D00034BF012000205DF808FB00BF4DF808ED96
:1005E000FFF7E0FF94BF012000205DF808FB00BF8B
:1005F0004DF808EDFFF7CEFF94BF012000205DF815
:1006000008FB00BF4DF808EDFFF7C4FF34BF012021
:1006100000205DF808FB00BF4FEA410C7FEA6C5CEC
:1006200002D150EA013C0AD14FEA430C7FEA6C5CEC
:1006300002D152EA033C02D14FF0000070474FF064
:10064000010070474FEA410212F5001215D211D590
:100650006FF47873B3EB625212D94FEAC12343F0BF
:10066000004343EA505311F0004F23FA02F018BF41
:10067000404270474FF00000704750EA013005D10A
:1006800011F0004008BF6FF0004070474FF00000CD
:10069000704700BF53B94AB9002908BF00281CBFE2
:1006A0004FF0FF314FF0FF3000F00CB8ADF1080C07
:1006B0006DE904CE1BF002FEDDF804E0DDE9022363
:1006C00004B07047704700BF000000000000000049
:1006D00001F0FF01102A2BDB10F0070F08D010F8F3
:1006E000013B013A8B422DD010F0070F42B3F6D1F7
:1006F000F0B441EA012141EA014122F007047FF010
:1007000000070023F0E80256083C85EA010586EA66
:10071000010685FA47F5A3FA87F586FA47F6A5FAA2
:1007200087F68EB9EED1F0BC01F0FF0102F00702AE
:1007300032B110F8013B013A83EA010313B1F8D159
:100740000020704701387047002D06BF354603383A
:10075000073815F0010F07D1013015F4807F02BF73
:10076000013015F4C03F0130F0BC0138704700BFC4
:10077000034613F8012B002AFBD1181A01387047E1
:1007800070B54FF0FF0C4CF4E06C1CEA11541DBF27
:100790001CEA135594EA0C0F95EA0C0F00F0DEF8F2
:1007A0002C4481EA030621EA4C5123EA4C5350EAD7
:1007B000013518BF52EA033541F4801143F4801328
:1007C00038D0A0FB02CE4FF00005E1FB02E506F0B9
:1007D0000042E0FB03E54FF00006E1FB03569CF00E
:1007E000000F18BF4EF0010EA4F1FF04B6F5007F14
:1007F00064F5407404D25FEA4E0E6D4146EB060686
:1008000042EAC62141EA55514FEAC52040EA5E500E
:100810004FEACE2EB4F1FD0C88BFBCF5E06F1ED8B8
:10082000BEF1004F08BF5FEA500E50F1000041EBEF
:10083000045170BD06F0004646EA010140EA02009C
:1008400081EA0301B4EB5C04C2BFD4EB0C0541EABE
:10085000045170BD41F480114FF0000E013C00F3D3
:10086000AB8014F1360FDEBF002001F0004170BDF7
:10087000C4F10004203C35DA0C341BDC04F1140410
:10088000C4F1200500FA05F320FA04F001FA05F29C
:1008900040EA020001F0004221F0004110EBD37069
:1008A00021FA04F642EB06015EEA430E08BF20EA95
:1008B000D37070BDC4F10C04C4F1200500FA04F338
:1008C00020FA05F001FA04F240EA020001F00041CA
:1008D00010EBD37041F100015EEA430E08BF20EA3D
:1008E000D37070BDC4F1200500FA05F24EEA020E85
:1008F00020FA04F301FA05F243EA020321FA04F0B4
:1009000001F0004121FA04F220EA020000EBD3706A
:100910005EEA430E08BF20EAD37070BD94F0000F6A
:100920000FD101F00046400041EB010111F4801F9E
:1009300008BF013CF7D041EA060195F0000F18BF4F
:10094000704703F00046520043EB030313F4801F8B
:1009500008BF013DF7D043EA0603704794EA0C0F45
:100960000CEA135518BF95EA0C0F0CD050EA41065B
:1009700018BF52EA4306D1D181EA030101F00041D8
:100980004FF0000070BD50EA410606BF1046194600
:1009900052EA430619D094EA0C0F02D150EA01360C
:1009A00013D195EA0C0F05D152EA03361CBF10464D
:1009B00019460AD181EA030101F0004141F0FE41EC
:1009C00041F470014FF0000070BD41F0FE4141F470
:1009D000780170BD70B54FF0FF0C4CF4E06C1CEA70
:1009E00011541DBF1CEA135594EA0C0F95EA0C0F25
:1009F00000F0A7F8A4EB050481EA030E52EA0335E0
:100A00004FEA013100F088804FEA03334FF0805500
:100A100045EA131343EA12634FEA022245EA11152D
:100A200045EA10654FEA00260EF000419D4208BFDE
:100A3000964244F1FD0404F5407402D25B084FEA8B
:100A40003202B61A65EB03055B084FEA32024FF437
:100A500080104FF4002CB6EB020E75EB030E22BF94
:100A6000B61A754640EA0C005B084FEA3202B6EB54
:100A7000020E75EB030E22BFB61A754640EA5C0003
:100A80005B084FEA3202B6EB020E75EB030E22BF93
:100A9000B61A754640EA9C005B084FEA3202B6EB94
:100AA000020E75EB030E22BFB61A754640EADC0053
:100AB00055EA060E18D04FEA051545EA16754FEAB5
:100AC00006164FEAC30343EA52734FEAC2025FEAD3
:100AD0001C1CC0D111F4801F0BD141EA00014FF062
:100AE00000004FF0004CB6E711F4801F04BF014333
:100AF0000020B4F1FD0C88BFBCF5E06F3FF6AFAE4F
:100B0000B5EB030C04BFB6EB020C5FEA500C50F1DE
:100B1000000041EB045170BD0EF0004E4EEA113161
:100B200014EB5C04C2BFD4EB0C0541EA045170BD68
:100B300041F480114FF0000E013C90E645EA060EAC
:100B40008DE60CEA135594EA0C0F08BF95EA0C0FDA
:100B50003FF43BAF94EA0C0F0AD150EA01347FF422
:100B600034AF95EA0C0F7FF425AF104619462CE7F9
:100B700095EA0C0F06D152EA03353FF4FDAE10465C
:100B8000194622E750EA410618BF52EA43067FF4AD
:100B9000C5AE50EA41047FF40DAF52EA43057FF43D
:100BA000EBAE12E70348044B834202D0034B03B180
:100BB000184770472C0300202C0300200000000081
:100BC0000548064B1B1AD90F01EBA301491002D0AF
:100BD000034B03B1184770472C0300202C0300205F
:100BE0000000000010B5064C237843B9FFF7DAFF88
:100BF000044B13B10448AFF300800123237010BDF0
:100C0000300300200000000058F4050808B5054B2B
:100C10001BB105490548AFF30080BDE80840FFF768
:100C2000CFBF00BF000000003403002058F40508C7
:100C300010B5184A044682B0062102200BF034F8A1
:100C4000E06028B32078214602F040F81249A068FD
:100C500022461BF0D7F9A28A2169A0681BF0DAF9B5
:100C6000E0684FF0FF33002269460BF08FF8002850
:100C7000F6D19DF80020E08ABDF80230216900FB22
:100C800002331944BDF80420204601F0C7FFE7E70E
:100C90000AF00AFE082E06089D0C040800B5136928
:100CA000B2F816E083B0A0EB030C0023ADF80410FB
:100CB000D068BCFBFEF11A460EFB11CC8DF800107B
:100CC00069468DF80130ADF802C00BF02BF803B087
:100CD00000BD00BF806864231BF070B910B50A4CDA
:100CE0000A4B636001201BF05DF9A060002004F056
:100CF0000DF9074B074AC4E9040321460648BDE83D
:100D000010400AF05DBD00BF0000002078F4050827
:100D100000058002E42D0608310C0408002070470D
:100D200010B5184A044682B0062102200AF0BCFF22
:100D3000E06028B32078214601F0C8FF1249A0687E
:100D400022461BF05FF9A28A2169A0681BF062F9B4
:100D5000E0684FF0FF33002269460BF017F80028D7
:100D6000F6D19DF80020E08ABDF80230216900FB31
:100D700002331944BDF80420204601F04FFFE7E795
:100D80000AF092FD242E06088D0D040800B51369A3
:100D9000B2F816E083B0A0EB030C0023ADF804100A
:100DA000D068BCFBFEF11A460EFB11CC8DF800108A
:100DB00069468DF80130ADF802C00AF0B3FF03B008
:100DC00000BD00BF806864231BF0F8B810B5114C5B
:100DD000114B8AB0002063601BF0E4F8A06004F0BF
:100DE000F3F80E4B2022C4E90403002102A81CF0F2
:100DF000DEFBDFF830E00A48CDF804E04FF4806C09
:100E0000182301AA2146CDE906C30AF0D9FC0AB08D
:100E100010BD00BFA8030020202E06080005800298
:100E2000210D040898F40508944603460A469CE8F8
:100E300003004FF0010C83E803009A6083F801C0BF
:100E400072B1526862B1517A41F008014FF4FA6010
:100E500051720321C2E9260142F2107CC2F894C00B
:100E60001946032001F032BF10B5044684B01E4875
:100E70001E4A2146FFF7D8FF02A920460EF06AFB62
:100E8000B8B90DF10602029803A910F04FF8BDF8A9
:100E90000620012A1AD8029810F07AF80028F0DA11
:100EA00002980FF0FDFF02A920460EF053FB002828
:100EB000E7D00D4B002103205960597001F006FF67
:100EC0000B4B18680AF0B2FE0AF0EEFC03990648D4
:100ED00001F0A4FE029810F05BF80028D1DA029825
:100EE0000FF0DEFFDFE700BF1C0400202C00002015
:100EF00030040020F0B52D4E326883B0002A4FD068
:100F00002B4D08E005301CD020460EF00BFA4FF4B4
:100F10007A700AF0CFFC0022114610200EF092F9F0
:100F200004460028F3D090F820302A8A43F00203C8
:100F300080F8203001A9EB6801930EF049FA0028EF
:100F4000E0D10AF035FC00F57A6701E00AF0B2FC66
:100F50000AF02EFCC31B002B4FF4FA70D4DA63782E
:100F6000032BF3D06368002BCED094F8203023F00D
:100F7000020384F82030306800210AF025FE0028A2
:100F8000F9D00C4A0C4821460AF01AFC20B130680E
:100F90004FF0FF310AF018FE20460EF03FFCB3E799
:100FA000114601200AF0AEFD3060A9E730040020B0
:100FB00018000020602E0608690E040800B585B0F0
:100FC000002380680093012303920EF0ABFB039A89
:100FD00000280CBF10464FF0FF3005B000BD00BF29
:100FE000014B1880704700BF340000202DE9F04706
:100FF000DFF808913E4CDFF808813E4F84B00022B4
:10100000114610200EF01EF9064648B1B9F800202E
:1010100039490EF0ABF9054638B130460EF082F989
:101020004FF4FA700AF046FCE9E7FF2130460EF073
:1010300001FA01A9304601950EF022FA002843D1A9
:10104000019B002B40D098E803004FF0010A84E890
:10105000030021460220A36084F801A001F036FEBF
:101060000198C7F800A002A90EF074FAC0B90DF1FA
:101070000202029803A90FF059FFBDF80220012ACD
:10108000204629D802980FF083FF0028EFDA029853
:101090000FF006FF019802A90EF05CFA0028E6D0D6
:1010A000002102203D606560657001F00FFE01982F
:1010B0000EF0B4FB01980EF035F901A93046019508
:1010C0000EF0DEF90028BBD04FF4FA700AF0F2FB04
:1010D00030460EF027F992E7039901F09FFD029840
:1010E0000FF056FF0028C2DA02980FF0D9FED1E7C0
:1010F0003804002034040020A488070834000020AD
:101100003800002070B584B00646019114460FF0F7
:10111000BBFE0199A0B1224605460FF0D9FED6F8D4
:101120000E20738AB0680392294603AA0EF0CCFA07
:10113000064628460FF0B4FE16B9204604B070BD2E
:101140004FF0FF30FAE700BF30B5294B294C054678
:1011500093E8030085B0012284E8030042F21B7388
:10116000214604206270A560A38101F0AFFD02A9B1
:1011700028460EF0EFF9B0B90DF10602029803A966
:101180000FF0D4FEBDF806200298CAB90FF000FF98
:101190000028F1DA02980FF083FE02A928460EF02B
:1011A000D9F90028E8D000210420C4E901116170B8
:1011B00001F08CFD104B18680AF038FD0AF074FB42
:1011C000037AA373437AE373837A2374C37A6374D1
:1011D000838903996382204601F020FD02980FF075
:1011E000D7FE0028C8DA02980FF05AFED5E700BFF4
:1011F00044000020600400207404002030B5294B16
:10120000294C054693E80300284B85B01B88A56050
:1012100084E803000122214607206270A38101F0C7
:1012200055FD02A928460EF095F9B0B90DF1060258
:10123000029803A90FF07AFEBDF806200298CAB9F9
:101240000FF0A6FE0028F1DA02980FF029FE02A99D
:1012500028460EF07FF90028E8D000210720C4E9D5
:101260000111617001F032FD114B18680AF0DEFCCB
:101270000AF01AFB037AA373437AE373837A237425
:10128000C37A6374838903996382204601F0C6FCA4
:1012900002980FF07DFE0028C8DA02980FF000FED9
:1012A000D5E700BFD02E06084804002040000020EB
:1012B0005C04002020B9034B186808B10AF0B6BCE2
:1012C000704700BF7404002020B9034B186808B1B0
:1012D0000AF0ACBC704700BF5C04002070B584B05D
:1012E0000646019114460FF0CFFD0199A0B12246A8
:1012F00005460FF0EDFDD6F80E20738AB068039214
:10130000294603AA0EF0E0F9064628460FF0C8FD6C
:1013100016B9204604B070BD4FF0FF30FAE700BFA9
:1013200070B51E4E3268002A31D01D481AF016FBE7
:1013300006E020460DF0F6FF4FF4FA600AF0BAFA24
:101340000022114620200DF07DFF04460028F3D036
:10135000456814496B7A43F0200342F21B726B72AA
:101360000EF004F80028E4D1306800210AF02CFCCB
:101370000028F9D00C4A0D4821460AF021FA00282D
:10138000D7D030684FF0FF310AF01EFCD1E711468C
:1013900001200AF0B7FB3060C7E700BF74040020EB
:1013A000B5120408A4880708282F06084911040864
:1013B000F0B5264E326887B0002A41D02448254D2A
:1013C0001AF0CCFA21E0059B4FF6FE71581E44F648
:1013D0008762884288BF13460022114620202B8056
:1013E0000DF030FF044660B147682A887B7A1A49BD
:1013F00043F020037B720DF0B9FF70B120460DF071
:1014000091FF4FF4FA600AF055FA01A800F038F89D
:101410000028D8D044F68763DEE7306800210AF060
:10142000D3FB0028F9D00D4A0D4821460AF0C8F92F
:101430000028E3D030684FF0FF310AF0C5FBDDE74C
:10144000114601200AF05EFB3060B7E75C04002023
:10145000C912040840000020A4880708DC2E0608F2
:10146000FD110408014B024A1A6070474C0000202D
:10147000D0330608014948221CF0F3B800400008A8
:1014800010B592B048221249044668461CF0E9F8AB
:10149000104B009A9A4203D04FF0FF3012B010BDAB
:1014A00019F0CEFC4422694619F0CEFC119B9842FB
:1014B000F2D10DF1300CBCE80F002060DCF8000028
:1014C000206100206160A260E36012B010BD00BF27
:1014D000004000082107000DF0B599B006460D4602
:1014E00014463749482206A81F461CF0BAF80DF1E9
:1014F000480EBEE80F000DF1040CACE80F00DEF85A
:101500000030304ACCF80030069B934208D119F0E5
:1015100097FC442206A919F097FC179B984233D0F8
:101520009FED257B2822002108A88DED067B1CF06D
:101530003EF833682A68129323681597CDE9132380
:101540001E9B16934FF0FF33099319F079FC1E4C44
:10155000442206A919F078FC2368179033B3DB689E
:1015600023B3002211462046984700280ADB23684F
:10157000E3B19D68D5B1482306AA00212046A847BB
:1015800000EAE07019B0F0BD1E9B2A68169333681C
:10159000129313922368159701A912A81422149389
:1015A0001BF0DCFF0028D0D119B0F0BD4FF0FF30A8
:1015B000E8E700BFAFF300802107000D0000000046
:1015C000004000082107000D4C00002070B59AB0C3
:1015D00004465849482208A81CF043F8002C00F0A3
:1015E00095802046FFF7C4F81F2888BF024600F206
:1015F0008F800DF1300EBEE80F00EC46ACE80F0016
:101600009EE80F004C4E089DB5428CE80F0008D1B3
:1016100019F016FC442208A919F016FC199B9842EF
:1016200056D04422002109A81BF0C1FF424A434979
:1016300008924FF0FF33224600200B9319F0C2FBB3
:10164000202200210CA81BF0B2FF2046FFF790F8E3
:10165000214602460CA81CF004F819F0F1FB384DA5
:10166000442208A919F0F0FB2B68199033B3DB680A
:1016700023B30022114628469847061E20DB2B681C
:10168000002B4CD09E68002E49D008AA482328463B
:101690000021B047021E08DA02EAE276294900205A
:1016A00019F090FB30461AB070BD27492246002041
:1016B00019F088FB002630461AB070BD4FF0FF3697
:1016C00022493246002019F07DFB30461AB070BD29
:1016D000099A42BB11460CA820221BF068FF204645
:1016E000FFF746F8214602460CA81BF0BAFF20225D
:1016F00069460CA81BF032FF06460028ADD11449FC
:10170000224619F05FFB30461AB070BD4FF0FF3231
:101710001049002019F056FB6FF00106C2E74FF0A8
:10172000FF363246BAE70C49002019F04BFB4FF068
:10173000FF36B7E7004000082107000D54F5050803
:101740004C00002010F6050838F60508E8F50508F5
:10175000C0F5050828F5050890F5050808B54FF40B
:10176000C061002001F006FA30B10146084801F0DE
:10177000C1F9084B186000B908BD042101F0F0F967
:10178000054A064800210AF01BF8054B186008BD01
:101790000D180408B01200204C2F0608A5170408E5
:1017A000A812002070B5134A134D40F21C410220CC
:1017B0000AF07AFA114B28601B68A3B9104C114E3D
:1017C0004FF0FF33002221460AF0E0FA48B9D4F87E
:1017D0000E300D49DBB2072B03D856F823302068B2
:1017E00098472868ECE70146184601F0A9F92868EF
:1017F000E4E700BF702F0608AC120020B0120020F2
:101800008C080020882F0608920800202DE9F0415E
:10181000084686B00D4600211746984609F000FD9F
:10182000002843D000240123064600940DF10B024A
:101830002146284609F0F2FD9DF80B305A2B35D190
:10184000032E2FD90423009403AA2146284603948B
:1018500009F0E4FD039BB3F15A3F27D10F2E049406
:1018600020D90423009404AA0C21284609F0D6FDAF
:10187000049BB3F5807F19D80533B6EB830F19D2DB
:10188000F71E01260423B1B2009405AA2846059448
:1018900009F0C4FD059BB3F15A3F06F1010605D0DE
:1018A000BE42EFD1012006B0BDE8F081022006B0B3
:1018B000BDE8F08128460E4D00949E00B3B22A4642
:1018C000214609F0ABFD19F0BBFAEA680432920038
:1018D000294619F0B9FAEB68043355F823308342EE
:1018E000E4D13E60AB6888F800302046DFE700BFF7
:1018F00078040020004870475C000020704700BF5B
:1019000038B50C4605461AF0D7F84DF6AD62002101
:101910001AF0D6F863680C4C4FF05A31C4E9001342
:101920004BF206420023C4E9022319F089FA21464A
:10193000102219F089FA0346214628462361142211
:10194000BDE8384001F048B93C1B002038B50D4CCB
:101950004B684FF05A31C4E900134BF205420023A3
:10196000C4E90223054619F06BFA2146102219F04A
:101970006BFA03462146284623611422BDE838400D
:1019800001F02AB93C1B002038B50D4C4B684FF0D4
:101990005A31C4E900134BF204420023C4E9022384
:1019A000054619F04DFA2146102219F04DFA03466A
:1019B0002146284623611422BDE8384001F00CB9C5
:1019C0003C1B002038B5104C4B684FF05A31C4E92D
:1019D00000134BF207420023C4E90223054619F025
:1019E0002FFA2146102219F02FFA2146034614221D
:1019F0002846236101F0F0F819F088FF19F08AFFFA
:101A0000BDE838401AF040B93C1B002030B5A1B009
:101A100005460EA80191FFF72DFD9DF848309DF871
:101A20004CE09DF849009DF84D409DF84B209DF8F5
:101A300051C01B064FEA0E6E4EEA044E43EA0043C5
:101A40009DF850409DF8550013434FEA0C4C9DF80B
:101A50004A204CEA046C9DF8544043EA02230004F7
:101A60009DF85920059340EA04609DF858409DF880
:101A70005D30120442EA04629DF85C401B0443EAB4
:101A800004639DF84F404EEA040E9DF853404CEA23
:101A9000040C9DF8574020439DF85B4022439DF87D
:101AA0005F4023439DF84E404EEA042406949DF87F
:101AB00052404CEA042407949DF8564040EA042022
:101AC00008909DF85A002B4C42EA002209929DF89A
:101AD0005E2043EA02230A93119A9DF86030109920
:101AE0009DF86400CDE903129DF86120019912046C
:101AF00042EA03629DF8633049681A439DF86230F8
:101B000042EA03229DF865300B921B049DF8672082
:101B100043EA006313439DF8662043EA02230F9AC9
:101B2000CDE90C324FF05A3323604BF20343C4E942
:101B300001130DF10C0E0B23E360BEE80F0004F15E
:101B4000100CACE80F00BEE80F00ACE80F009EE8F8
:101B500007008CE8070019F073F921463C2219F0C0
:101B600073F94022034621462846E36301F034F826
:101B700021B030BD3C1B002030B593B0054668460F
:101B80000C46FFF777FCDDE90C0261680E9B124CF6
:101B900000BA12BAC4E904021BBA4BF201426160F6
:101BA000A3614FF05A310F9BA2600422E3612160D0
:101BB000E26019F045F92146202219F045F94FF06D
:101BC000FF3320622422C5F80E302146284601F05A
:101BD00003F813B030BD00BF3C1B002030B50C46ED
:101BE00091B04969A269E369054620690DF1080CC5
:101BF000ACE80F0000230A93DDE9032301BA12BA0F
:101C00001BBA06910BA805990991CDE90723FFF7A7
:101C100037FC30BB0F9A099B009207A908AA06A8B7
:101C2000FFF75AFC6268104C4FF05A3323604BF2B6
:101C30000243C4E90123C00F0123C4E9033019F0B2
:101C4000FFF82146142219F0FFF84FF0FF336061CE
:101C50001822C5F80E302146284600F0BDFF11B00D
:101C600030BD44F68762D6E73C1B0020F0B508463D
:101C700085B00C460021174609F0D2FAB0B3002116
:101C80000123054600910DF10A02204609F0C6FB2A
:101C90009DF80A307B2B29D1022D4FF0000128D965
:101CA000032303AA0091204609F0B8FB9DF80D30EC
:101CB000A3F13102082A14D89DF80E100E1DB5426A
:101CC00017D3002501230095033120460DF10B02A7
:101CD00009F0A4FB9DF80B307D2B07D13E60284610
:101CE00005E023F04003013B012BE5D9022005B0BC
:101CF000F0BD012005B0F0BD30B50B4C0B4D87B0E9
:101D000028684FF0FF33002221460AF03FF80028F0
:101D1000F6D101A8A288064900F01CFB206801A9A1
:101D200000F05EF9ECE700BF501F0020D029002032
:101D3000561F002000B54FF4407183B0012000F021
:101D400019FF30B101461F4800F0D4FE1E4B186049
:101D500008B903B000BD002100F002FF4FF440714C
:101D6000022000F007FF0146F8B1164800F0C2FE5D
:101D7000164B1860F8B9164A019340F20B11032074
:101D800009F092FF104B134A01461868116000F0E9
:101D9000D7FE019B0F4A186848B90F4A0F48002127
:101DA00003B05DF804EB09F00BBD084BE3E71168E5
:101DB00000F0C6FEF1E70121019300F0D1FE019B86
:101DC000D9E700BF6D1C0408D8290020D4290020C1
:101DD000CC2F0608D0290020A82F0608F91C0408DB
:101DE000004870477C000020004870476C000020CD
:101DF0002DE9F04F95B003F0C3F9714F8246387862
:101E0000002840F0BF8000F0FF00DFF8D0B1039061
:101E10006C4E0890554616F8010B85B16B898342CC
:101E200002D3AA8982420AD2674A964200F09F8072
:101E300016F8010B8342F7D3AA898242F4D3634B8D
:101E400002930590E9230996DF2B00F2A18001217E
:101E500000220491884611468DF828304FF0000387
:101E60008DF829208DF82A108DF82B30002D5ED0AA
:101E7000B5F80A90089E564CB5F80CA0A45DCDF8B4
:101E800000A000231A46019311464B4628460694AB
:101E900003F0B4F9059BBAFBF3F4E4B2012CB9FBEF
:101EA000F3F2D2B238BF0124012A38BF012204FB69
:101EB00002F24FF00003049E85F8253007950024B8
:101EC0004FF6FF79551E92460BEB040042460AA9D5
:101ED0001BF0C7FB6B1E9DB234444D45A4B2F3D139
:101EE000079D00230C93D5F80A300D93059B8DF8C0
:101EF0004230069B8DF8433040F20113ADF82C3090
:101F000001238DF82E300BAB119302238DF848304E
:101F10000CA8072316FB0AF6ADF84060CDF83CB0DC
:101F2000ADF8383001F0E0FF284603F02FF9039AAE
:101F300041F287339A4232D802F5FA7303930524AB
:101F40003B7823B9642009F0B5FC013CF8D13B781B
:101F500033B9029B434402931B78002B7FF474AF88
:101F60003B78099E1BB9184B9E427FF454AF3B78D7
:101F70000898AA4633B93B78421C02F00300002BB4
:101F80003FF446AF134A002313703B7009F08CFCFA
:101F9000029903204A780490897880465CE72023E0
:101FA0000D480B930CAA0BAB122109F0C9FABDF82E
:101FB0002C100CA802F0B2FF4FF4FA730393BEE7A3
:101FC000DC2A0020283006082B300608D0F6050849
:101FD00024300608DD2A0020E42F0608DC29002032
:101FE000002965D04B78002B62D1F0B5AB4B0A7855
:101FF000144617461A788DB032B1012C59D0A84A30
:102000004FF0010C82F800C00D460C2F4ED8DFE8CF
:1020100017F0C60050000D00E600DB00C9009A0072
:102020007E0071006200B900A000BF0003F0A8F8B4
:10203000044600283AD06A7A4389002102EB420222
:102040001826CDE90061D20003F0D8F86B7A6289D6
:10205000ADF8182003EB43032A7ADB000021ADF82A
:102060001630022A4FF01803ADF81410ADF81A30EC
:1020700002D88C4B9B5C1F46EA68B5F810C00892EA
:102080001820002304A90122ADF8260005A88DF828
:102090001C708DF81D30ADF824C0ADF810308DF8EF
:1020A00012300A918DF82C2001F01EFF0DB0F0BD0A
:1020B00070471A7802F0FF01002AF7D1012018704A
:1020C000DFF8DCC1784A79488CF800100DB0BDE823
:1020D000F04009F075BB0B7A9907C3F3800200F159
:1020E000C680DB0700F1D38010460DB0BDE8F0409C
:1020F00003F04CBA0B7A5A1E042AD7D86C4A134400
:1021000013F8010C0DB0BDE8F04002F02FBF097AC2
:10211000029103F035F803460028C7D00299002940
:1021200000F0AB800829C1D8624A106828B1CDE917
:10213000021309F099FBDDE9021318460DB0BDE862
:10214000F04003F055B8087A0DB0BDE8F04000F05B
:10215000CBB90A7A029203F013F804460028A5D0FE
:10216000029A531E062BA1D843890192818900222D
:102170000091114603F042F820460DB0BDE8F04052
:1021800003F004B888680DB0BDE8F04000F0CAB9AB
:1021900049490A220DB0BDE8F04000F01DBD474995
:1021A0000522F7E702F0ECFF00283FF47FAF2A7A20
:1021B000438900214FF0180C02EB4202CDE900C127
:1021C000D20003F01BF871E702F0DAFF04460028A2
:1021D0003FF46CAF0022438901928189C8E702F085
:1021E000CFFF044600283FF461AF002243890192EB
:1021F00081890091114603F001F86A7A63899A4255
:10220000BFF454AFA87AA1898842BFF44FAF9B1A9C
:10221000ADF814202A7AADF81830022A98BF214B65
:10222000ADF81600A1EB000198BF13F802C0E868F2
:10223000ADF81A1088BF4FF0020C298A8DF81CC027
:10224000002201234FF0180C0890ADF8241005A8C7
:1022500004A98DF81D20ADF826C0ADF810208DF82A
:1022600012300A918DF82C3001F03EFE1EE700205E
:10227000029203F085F9029A36E70E4B186800289F
:102280003FF414AF0DB0BDE8F04009F0FDBA0120F5
:10229000029203F075F9029A26E700BFDD2A0020BA
:1022A000DC2A002034300608F82F0608F11D040847
:1022B0002C300608BC32002008F705081C30060840
:1022C00070B50D4600293FD04FF0000C064600F1D6
:1022D000FF3E624605E01FFA84FCAC4503EB40027A
:1022E00013D01EF8013F303BD9B209290CF101048B
:1022F00002EB8200EFD96423654503FB02F003D9AA
:1023000016F80C302E2B04D070BD642303FB02F0B2
:1023100070BDA3B29D42F7D9F15C3039CBB2092B25
:1023200014D80CF102039BB29D4201EB810108D944
:10233000F35C303BDAB2092A03D803EB41031844BB
:1023400070BD00EB410070BD084670BD002318440D
:10235000F6E700BF03460020C3E90000C3E902001E
:10236000186121B1032A02D908787B2803D0012201
:102370005A7018467047881810F8010C7D28F6D15D
:1023800048780138C0B2412800F2A280F0B5DFF8E9
:1023900054C11CF800000D2883B0054600F094805D
:1023A0008878043A92B282420646C0F089806A1E5A
:1023B000CF1C0B2A07D8DFE802F0062814067A7132
:1023C000655B564C4349002E3CD100210A46084625
:1023D0001D7058705E805F60DA601982184603B025
:1023E000F0BD321F522A2DD8CA78303AD2B2022A12
:1023F0001A720A795A724A799A7288BF284601F18C
:10240000060298BF0020F11EE2E7F21E0F2A19D83B
:10241000C87891F804C03038C0B2ACF1310C5FFA22
:102420008CFC022801F10502187283F809C0A6F19C
:10243000020109D8BCF1040F8CBF03200020C7E7BC
:10244000012E49D000210A460320C1E7012EF9D10F
:10245000BBE73146002EF5D038460193FFF730FF39
:10246000019B9860B1E7012EECD1CA781A72ACE7F3
:10247000012EE7D1CA78A2F13001313A042A19724B
:10248000E0D8A2E7012EDDD1CA78002A9DD0A2F1C2
:1024900031010729D6D8303A1A7296E7012ED1D1E8
:1024A000CA78303AD2B2032A1A72CBD88DE7012EFD
:1024B000C8D1CA78313AD2B2042A1A72C2D884E793
:1024C00001221D705A7089E740F20D221A8085E7BB
:1024D00040F20D221A804CE7CA78511E0629B1D865
:1024E0001A7272E738300608032800D9704710B511
:1024F0000B4A52F8202092B0402310461446019314
:10250000FEF736F901AB014602AA204609F018F899
:10251000BDF8041002A802F001FD12B010BD00BF0A
:102520007C30060890B310B51D4BA3FB001359096E
:10253000642202FB1101A0B05B0901B3194ADFF864
:1025400074C002FB00F0BCEB700F20D3A2FB012192
:10255000C90804A80091144A302104461AF0F6FE76
:10256000402203AB0146039220466A4408F0E8FF8C
:10257000BDF80C1010A802F0D1FC20B010BD04A8CA
:102580000A4A302104461AF0E1FEE9E7704704A840
:102590000091074A302104461AF0D8FEE0E700BF58
:1025A0001F85EB51CDCCCCCC40F7050828F70508AA
:1025B00058F705089999991938B50024254608E077
:1025C00084F00104224619F067F94FF4FA7009F01B
:1025D00071F919F09BF919F09DF93C2D4FF00901A3
:1025E0004FF0030005F10105EAD119F065FA84F016
:1025F00001040022012119F063FA09212246032077
:1026000019F04AF94FF4FA7009F054F919F07EF90B
:1026100019F080F9E9E700BFF0B5B3B003F0C4F9F1
:1026200008F0CAFD19F072F919F074F94148FEF783
:10263000CDFF00F0DDFE02F0A3FD054612AC3E4AE0
:102640003C4B20210AA81AF081FE1AAE3B4A2B6AA5
:10265000202120461AF07AFE394A00946021002495
:102660000AAB30461AF072FE6B890194A989009179
:1026700022462146284602F0C1FDD5F80A3085F8E9
:10268000254002273046CDE90343ADF81470069685
:10269000FEF76EF82B4BADF81C001B68ADF8083048
:1026A0001B0C03A88DF80A3002AB08938DF8247038
:1026B000ADF81E4001F018FC41F2883009F0FAF83C
:1026C0006B890194AA89009221462246284602F08D
:1026D00095FD2022214685F825401BA81AF067FFAA
:1026E00019481A904FF40071082332461F91174879
:1026F0002093214609F064F8154A1648214609F04E
:102700005FF8154A1548214609F05AF8144A154849
:10271000214609F055F8144A1448214609F050F8AA
:10272000FEF754FBFEF7DAFAFEF7F8FA00F050F87D
:1027300009F0BAF808F70508E0F70508E8F7050812
:10274000F0F7050870F40508F8F70508B92504083E
:10275000842E0608ED0F04083C2E0608F50E04082A
:10276000002F060821130408AC2E0608B113040834
:1027700000B58BB02022002102A81AF018FF2823F0
:10278000084901914FF40062CDE9062308F0AEFF3D
:10279000002101AA044809F013F808F0B9FF0BB0B2
:1027A00000BD00BF08F805081926040882B0019092
:1027B000019BFEE74FF0500383F31188BFF36F8F47
:1027C000BFF34F8FFEE700BF18F072BB18F084BB59
:1027D000154B1B6803B1184700B58BB003930193E9
:1027E00002F0CEFC4289ADF8102002F0C9FC0F4A7D
:1027F000B0F80CC00E48019BADF812C003214FF099
:10280000010CADF81410069202A90222079003A849
:10281000ADF809308DF808C008918DF8242001F03A
:1028200063FB0BB000BD00BFE02A002014F80508D0
:102830001900000300B50F4A8BB00421202009F0D5
:1028400033FA0D4B2022C3F89001002102A81AF0A0
:10285000AEFE0A4901914FF4806C182301AA0021B1
:102860000748CDE906C308F0ABFF064B18600BB074
:1028700000BD00BFA4300608F02A002030F805088B
:1028800089280408EC2A00202DE9F04F89B00023A4
:10289000DFF85CB207938DF81730DBF890014FF04A
:1028A000FF33002206A909F071FA0028F5D1069B32
:1028B000002BF2D01A78072AEFD80BEB8201D1F85F
:1028C000B4118B42E9D1DBF80040002CE5D00BEBD2
:1028D0008202D2F894A1204608F054FC631E012124
:1028E0001C4001FA00F313EA0A0F5FD00BEB8003E0
:1028F000D3F80480B8F1000F58D068B1002301FA72
:1029000003F212EA0A0F04D0734A52F82320424518
:102910004CD001339842F2D1404608F073FC0021BC
:10292000404608F07DFC00287CD007464FF0400967
:102930000394DBF80040002C34D00023CDE90133B0
:102940000126009702E0631E1C4024D0204608F0B8
:1029500019FC06FA00F313EA0A0F05460BEB800296
:10296000F1D053684345EED1D2F884301A46174669
:102970000DF11703002AE6D0069807AA4146B8478A
:102980000328E0D8DFE800F01C150255012302936C
:10299000631E1C40DAD1DDE90073002B67D1029B76
:1029A000002B58D14046039C08F034FC002C92D1F7
:1029B00073E7631E1C4000F08A8001230193C5E782
:1029C000079A009F40F214439A4242D8BA424ED826
:1029D0000023424992B2404608F0BAFC0021044666
:1029E000404608F01DFC079B9C42074659D02146F3
:1029F0000022404608F076FD0021404608F010FC19
:102A00000746374B4FF000021A70002FCAD009F169
:102A1000FF3313F0FF098CD14A4601214046039C45
:102A200008F060FD404608F0F5FB002C7FF453AF42
:102A300033E70799009F40F21443994209D8B942FD
:102A400015D889B20022404608F04CFD381A87B2EA
:102A5000D7E7019B5BB9224B4FF000021A700121AE
:102A60000022404608F03EFD381A87B2CDE7039CAD
:102A7000B94608F09DFE1A4B1B78FBB1194B1B8819
:102A80004B451BD3184B1B68C01AB0F5FA7FC9D948
:102A900000220121404608F025FD114A0023137051
:102AA000C0E71249069A0A600BEB85050023D5F8AA
:102AB00004018C801A4609F035F9A2E70A4B084A4E
:102AC0001860084BA3F8009001231370AAE7DDF803
:102AD0000090039CCDE700BFF42A0020CA2C002000
:102AE000EA2A0020E82A0020E42A0020C42C002042
:102AF000F02A0020F1B1114A1368DB4301D11846D6
:102B0000704710B582B004461846019108F03AFBB0
:102B10000A4A01231168834041EA030CC2F800C04D
:102B2000019902EB800C1846CCF80410CCF88440D4
:102B300002B010BD0B461846704700BFF02A0020B7
:102B400058B110B50C4608F01DFB1F2804D8034BE4
:102B500003EB8003C3F8044110BD7047F02A002046
:102B6000034B643103EB81035A6802435A60704798
:102B7000F02A0020022826D8144A00F1600302EB54
:102B8000830253680BB118467047114B53F820303D
:102B9000CBB130B583B00C4600920546984770B172
:102BA0008188A1420BD30B49019051F8251008F000
:102BB00019FBDDE900231846536003B030BD002344
:102BC000184603B030BD0023DDE700BFF02A002027
:102BD000983006088C300608D0B110B5D0F804E063
:102BE000BEF1000F11D090F800C0BCF1070F0CD857
:102BF000094C04EB8C0CDCF8B4C1604505D1DEF85F
:102C0000003013B1BDE8104018474FF0FF3010BD41
:102C10004FF0FF30704700BFF02A00202DE9F04F41
:102C2000294FA5B0D7F890310390002B3BD0037803
:102C30000DF1100B07EB8303CDE9011258468022FA
:102C40000021D3F894811AF0B2FC3D6815B3002638
:102C50004FF00109284608F095FA09FA00F36A1EB8
:102C600013EA080F05EA020512D007EB800044685A
:102C700074B1B246D6B15B464FEA860A0BEB8601C9
:102C800001E0994212D01A68A24203F10403F8D17C
:102C9000002DDFD100F052FBD7F890012B462A46D9
:102CA00003A909F03FF825B0BDE8F08FEA44DDE95B
:102CB0000112E3682046013608F0DEFAF6B2CAF8DF
:102CC0001040002DC6D1E5E7F02A0020072804D8DF
:102CD000024B03EB8003C3F8B4117047F02A0020C5
:102CE00000B58BB02022002102A81AF060FC084930
:102CF00001914FF4806C282301AA00210548CDE9F9
:102D000006C308F05DFD044B18600BB000BD00BFAA
:102D100084F805081D2D0408B43200202DE9F04F79
:102D2000B5B002F02DFAB04CB04DB14F06460DF1E2
:102D300090080DF1380A002323702B70032002F055
:102D4000F7FC6421002800F0808203685B68002B98
:102D500000F07B829847002800F0778201232B70D7
:102D6000002E00F0A482336A002B08BF3B464FF0D0
:102D70000009A04A009340219F4B40461AF0E6FA12
:102D80007389CDF80490B18900914A46494630468E
:102D900002F034FACDF83C90D6F80A3010934FF098
:102DA000020B4046CDF84880ADF844B0FDF7E0FC9A
:102DB00040F20113ADF84C000FA88DF854B0ADF8F7
:102DC0004E908DF83A90CDF850A0ADF8383001F023
:102DD0008BF8032002F0ACFC6421002800F03A825A
:102DE00003685B68002B00F035829847002800F0EC
:102DF0003182012273890192B28900920022304609
:102E0000114602F0FBF9304602F0C0F9032002F04F
:102E10008FFC6421002800F0228203685B68002B8D
:102E200000F01D829847002800F019820222738961
:102E30000192B289009200223046114602F0DEF97A
:102E4000304602F0A3F9032002F072FC642100284E
:102E500000F00A8203685B68002B00F00582984747
:102E6000002800F00182032273890192B289009246
:102E700000223046114602F0C1F9304602F086F9D0
:102E8000032002F055FC6421002800F0F281036861
:102E90005B68002B00F0ED819847002800F0E98185
:102EA000072273890192B2890092002230461146AE
:102EB00002F0A4F9304602F069F9032002F038FC70
:102EC0006421002800F0DA8103685B68002B00F0C1
:102ED000D5819847002800F0D1810422738901929E
:102EE000B289009200223046114602F087F930463E
:102EF00002F04CF9032002F01BFC6421002800F0D2
:102F0000C28103685B68002B00F0BD8198470028F0
:102F100000F0B981052273890192B28900920022E2
:102F20003046114602F06AF9304602F02FF90320CC
:102F300002F0FEFB6421002800F0AA8103685B68B0
:102F4000002B00F0A5819847002800F0A1810622FF
:102F500073890192B289009200223046114602F034
:102F60004DF9304602F012F9032002F0E1FB642132
:102F7000002800F0928103685B68002B00F08D81CF
:102F80009847002800F089814FF000097389CDF837
:102F90000490B289009249464A46304602F02EF922
:102FA000D6F80A301793154B19930CAB1B930223D9
:102FB000ADF860308DF870301F231A9316A840F2D8
:102FC0000113ADF83030CDF858908DF8329000F004
:102FD0008BFF484602F0D4FA012002F0D7FA3046BF
:102FE00002F0D4F80CE000BFB1320020B032002073
:102FF00094F805089CF8050808F70508C8F80508BE
:10300000032002F095FB6421002800F04B81036847
:103010005B68002B00F046819847002800F0428151
:103020004FF000097389CDF80490B28900924946A7
:103030004A46304602F0E2F8D6F80A301E93A24B18
:1030400020930DAB22930223ADF87C308DF88C30A9
:103050001F2321931DA840F20113ADF83430CDF8A1
:1030600074908DF8369000F03FFF012002F088FA4E
:10307000484602F08BFA304602F088F8032002F04E
:1030800057FB6421002800F0148103685B68002B63
:1030900000F00F819847002800F00B818B4B0390C4
:1030A0001868DFF84CB208F0DFFB00250821304635
:1030B00002F09EF873890195B18900912A4629464C
:1030C000304602F09BF8304602F060F87389B2890E
:1030D000D4463746102138468B42A9467C4F4FF6DE
:1030E000FF7A054601D38A4209D27A498F4200F01D
:1030F000E58017F8011F8B42F7D38A42F5D3764B50
:10310000CDF8249013F809300893744B049306917A
:10311000E9230A97CDF814C00B95DF2B8DF83C30CE
:1031200000F203814FF0000301268DF83D30374651
:1031300000238DF83E304FF000038DF83F3002F051
:103140001FF8B0F80A9085890095002211464B4679
:103150000192029002F052F8069AB5FBF2F5EDB238
:10316000012DB9FBF2F2D2B238BF0125012A029B30
:1031700038BF012205FB02F24FF0000183F8251051
:1031800002F1FF390025079209F1FF390BEB050029
:103190003A460FA91FFA89F91AF063FA7319D14553
:1031A0009DB2F1D1002324934D4B0599079A1B68DA
:1031B000029D16FB02F6D5F80A200B801B0C8DF839
:1031C0003A30069B8DF8A230089B8DF8A330072378
:1031D000ADF898300EAB0593299340460223259213
:1031E0008DF8A830ADF8A060CDF89CB000F07CFE62
:1031F000284601F0CBFF039802F0C2F940F6B8363A
:10320000642E4FF00300354628BF642502F090FA83
:1032100000286FD003685B682946002B6AD0984766
:10322000002867D0294B186808F02EFB00F0C4FE78
:10323000BFF34F8F2B492C4BCA6802F4E062134353
:10324000CB60BFF34F8F00BFFDE72378002B3FF427
:1032500075AD70E52378002B3FF4BBAD6BE52378AB
:10326000002B3FF4D3AD66E52378002B3FF4EBADA4
:1032700061E52378002B3FF403AE5CE52378002B57
:103280003FF41BAE57E52378002B3FF433AE52E5F5
:103290002378002B3FF44BAE4DE52378002B3FF411
:1032A00063AE48E52378002B3FF4AAAE43E50F4B0D
:1032B0005DE52378002B3FF4E1AE3CE509F1010127
:1032C0002F4601F0030505E7A8F80508BC320020E9
:1032D000C0300608C2300608BC300608D0F6050823
:1032E00074F4050800ED00E00400FA0594F8050800
:1032F000B031002023780BB9761B81D12378002BC5
:1033000090D1049A039B3A4483F00103DBB2039308
:1033100013780492002B7FF400AF0B9DDDF814C0EE
:103320006B89AA89DDE90997DFE6049A53788DF85D
:103330003D30032693783746FBE600BF014B012260
:103340001A707047B132002008B5042002F0F0F97D
:10335000034620B103681B680BB198470346074A30
:103360000520137002F0E4F9034620B103681B68DE
:103370000BB198470346024A137008BDB9320020CA
:10338000B832002008B5044802F0FCF94FF47A7016
:1033900008F090FAF7E700BFC032002000B58BB00C
:1033A00001F0EEFE01460E4802F0CCF90C4808226E
:1033B000042102F0D5F92022002102A81AF0F7F822
:1033C000084901914FF4007C082301AA0021064816
:1033D000CDE906C308F0F4F9044B18600BB000BD4A
:1033E000C03200200CF9050885330408BC320020E7
:1033F00000B589B003A8FEF743F8E0B99DF80D20A9
:103400009DF80C309DF80E1013439DF80F200B43D0
:10341000134310D0069B4FF6FE72013B93420AD82D
:1034200005AA04A903A818F01BFBBDF81800FDF7B6
:10343000D7FD09B000BD44F687630093084A0949E7
:10344000094842F23853FEF747F8054A054906484D
:1034500018F006FB42F23850FDF7C2FD09B000BD7E
:10346000C4300608C8300608CC30060870B52E4CAB
:1034700024681E46237A0D4611466268B3B103EBF9
:10348000830C02EB4C03944603E00CF10A0C9C45C0
:103490000CD09CF800E08645F7D19CF801E0AE45E1
:1034A000F3D19CF802E08E45EFD1624696F800C059
:1034B00035B3C31DA47C7178DB1000FB03F35CB350
:1034C000BE24ACF1810004FB00F00C064CBF413976
:1034D0004039084492F90640918892F907C000FBF0
:1034E00003F32144C3F30320B2F90840604401EB25
:1034F000133200EB021054FA83F303EB002070BD8B
:1035000043080733617CDB1000FB03F360460029AE
:10351000E0D1ACF12000DDE7ACF1A1005E24A139DF
:1035200004FB0010D6E700BF8C00002000B50C4A59
:103530008388014683B0106823B1B1F806C0BCF19E
:10354000000F02D14389B0F80CC00A7A01924A8870
:103550000988CDF800C001F051FE03B000BD00BFE6
:10356000D43500208388B3B1B0F806C0BCF1000F99
:1035700011D0C2687AB100B585B001460192064803
:103580000A7A006802924A880988CDF800C001F0E2
:103590006BFE05B000BD7047D435002008B501F0C2
:1035A000EFFD144B186002F00BFE134A1060F0B1EF
:1035B000026803469AB112698AB19047A0F5005398
:1035C0000E4A0520136002F0B3F860B103681B686F
:1035D0004BB1984738B10A4B0A4A1A6008BD5B687C
:1035E000A3F50053ECE7064B074A1A6008BD074BEA
:1035F000E6E700BFD4350020D0350020CC350020D0
:103600008C000020DC300608F030060800E0FFFFE8
:10361000C368002B00F0A081018A002900F09C8182
:103620008288002A00F09881C288002A00F09481E4
:103630002DE9F04F027E04464088022AA1B082465E
:1036400000F08B81B1F5807F0A46414828BF4FF4D6
:103650008072194604921AF004F8D4F814C0A57CBC
:10366000049ABCF1000F00F0A4839CF80210002D16
:1036700000F08C81364EAB46002900F036820023E4
:103680006F08A8469E4625461846E1463446E15C4A
:103690000A2900F0EF81A1F120065F2E00F2F781E8
:1036A00001339BB23E46B5F804C00EEB06016145FE
:1036B00040F304821F2800F2CF810DEB400101305E
:1036C000A1F840E0C0B2B6469342E0D32C46CC46C7
:1036D00045461F2800F2C0810DEB40032188A3F866
:1036E00040E0431CDBB20B938E46BCF1000F1AD0B6
:1036F00013FB0BF39BB29CF80110012900F0A5838A
:10370000022908D1E6885746F119C91A89B29E42A2
:1037100088BF0F46BA469CF80030012B00F08A8320
:10372000022B00F09982002A00F096816B08079323
:103730000733DB10064E099513FB0BF30D930023A3
:10374000CDE9042606930C901D46764671E000BF35
:10375000CC340020079AB4F804C0B218624508922D
:103760002EDD6269002A00F021839078002800F0A5
:103770001D830698127801300AEB0B06C0B2012AAD
:103780001FFA86FA0690268800F03A83022A0DD1A5
:103790000CEB0602DDE90B76B84234BF0146314638
:1037A0000DEB4101B1F84010521A96B20998E28827
:1037B0000AEB0001914200F34F81079AB218089278
:1037C0008DF83C30A64B1F688FB13B687BB15B68BE
:1037D0000A9363B1E27C09980FAB0021FFF746FE24
:1037E000A04ABDF83430014638460A9FB847002346
:1037F000DDF81C9001939C4BCDF800B01868314661
:103800004B46524601F0FAFC97490868CDF800B0E3
:10381000237A0293934B019331464B46524601F073
:1038200023FD0135BDF82060ADB2049B9D4280F0C0
:103830001381059B5B5D0A2B00F0C182A3F120027E
:103840005F2A87D904996A1C8A4280F2958203F123
:103850007F01C9B27D2900F28F82059911F802E03B
:10386000AEF14001C9B2BE2900F28682BEF17F0FDF
:1038700000F082820999B4F804807118414530DD66
:103880006169002900F0FD8291F802C0BCF1000FCF
:1038900000F0F782069E09780AEB0B0C0136F6B2AF
:1038A0001FFA8CF701290696BA46268800F0F482A2
:1038B00002290FD1DDE90B7008EB0602069EBE421D
:1038C00034BF3146014620A800EB410131F8401CCD
:1038D000521A96B2099FE2880AEB0701914200F35F
:1038E000BB808DF83C305E4B8DF83DE01F68BFB16A
:1038F0003B68ABB15B68089393B1DDF82480E27C50
:103900000FAB01214046FFF7B1FD08F10703DB10C3
:1039100013FB0BF30146534A38469BB2089FB84746
:10392000514FCDF800B000230193314638685B4613
:10393000524601F063FC3868CDF800B0237A029358
:10394000484B019331465B4652465E44023501F0D6
:103950008BFCB6B2ADB268E770474FF48072184680
:10396000109210AB414A07F0EBFDD4F814C0BDF83B
:103970004020A57CBCF1000F68D09CF802102DB14E
:10398000AB46002A00F06E82384E75E6384B1B6855
:10399000187C002800F06F82A588DB68002DAB46FC
:1039A00008BF4FF0FF351FFA85F8E5880695002916
:1039B00000F0FF8018180590002A00F0D780CDF89D
:1039C00020C09E46944609949EF80040002C00F0CA
:1039D0009D810023254807900125F1461E468E460D
:1039E00024FA05F704941946204A905D0A2800F04D
:1039F0003B81A0F12002741C5F2AA4B200F2538123
:103A00003A468818404540F397810135ADB2402DC4
:103A100000F261819045C0F05E818B4238BF0B4659
:103A20009BB2264611466645DED30A46934238BF0E
:103A300013469BB29B457146049CCE4680F07F8125
:103A4000059B0EF1010E7345BED14BE1002D00F038
:103A50009D80002A40F0B08121B0BDE8F08F00BF0A
:103A6000D0350020CC320020D4350020CC340020CA
:103A70008C0000201F28EFD80DEB400101330130EE
:103A8000A1F840E09BB2C0B24FF0000E1CE65E1CF5
:103A9000964211DA7F31C9B27D290DD814F806C0DB
:103AA000ACF14001C9B2BE2906D8BCF17F0F03D0EA
:103AB00002339BB24646F6E5B3B205E61FFA81FE35
:103AC00002E6013189B2402940F2178103462846B7
:103AD0005D1CA84276D16246DDE907C4002A00F0E9
:103AE000AB80A64E4FF0100B10250023E1469E46FA
:103AF00018464FEA5508AC46F15C0A2911D0A1F1ED
:103B000020055F2D1AD801339BB24146A588714428
:103B10008D4201DB1FFA81FE9342EDD36546CC4610
:103B2000D7E51F2898D80DEB400101330130A1F8EB
:103B300040E09BB2C0B24FF0000EEDE75D1CAA4220
:103B40000FDD7F31C9B27D290BD8775DA7F1400128
:103B5000C9B2BE2905D87F2F03D002339BB261467C
:103B6000D4E7ABB2D8E7984200F0AA81591C814251
:103B700003F10203F7D10020ADF8400021881023A3
:103B80008E4601210B919B461D46B4E57C4B1B687C
:103B9000187C002800F07881A188DB6800298B461A
:103BA00008BF4FF0FF311FFA81F8E18806914FF00E
:103BB000000C19461844002A39D0CDF81CC01D4607
:103BC000944608942A78002A00F0AD800121002450
:103BD0006A4E049222FA01F92A46A6460546234671
:103BE00005961046654AD65C0A2E3FF46AAFA6F1E8
:103BF00020075A1C5F2F92B242D813464E46764495
:103C00001FFA86FEF045FFF461AF6345EAD3A6458F
:103C100038BFA6460346F3452846049A1D4680F061
:103C20009C800135A842CDD155E7884204D04B1C79
:103C3000834201F10201F8D10022ADF84020BCF12D
:103C4000000F3FF409AF23889E46102301210B91FA
:103C50009B4600201D464EE5A388BDF840107344E6
:103C60005B1A1FFA83FE5EE50135ADB2402D32D8F6
:103C70008B4238BF0B4601369BB2B6B20021D2E66A
:103C80006245C4D27F36F6B27D2E20D83D4EF75C19
:103C9000A7F14006F6B2BE2E19D87F2F17D00233F7
:103CA000049E9BB2ABE76445BFF4BFAE7F30C0B2A9
:103CB0007D280ED8334A905DA0F14002D2B2BE2AD0
:103CC00007D87F2805D0B41C049AA4B299E61346FD
:103CD00088E7264688E6059B714609F1010E734583
:103CE0007FF472AE6246DDE908C4002A00F0E88085
:103CF000224E4FF0100B1025BEE4744503F1010372
:103D000038BF74469BB24FF0000E7EE7059A0EF165
:103D10000103934200F08A809EF80140002C00F0DD
:103D2000D9809E4655E66B1C83427BD06A78002A78
:103D300000F0CB801D4649E781B2264673E6069A1D
:103D400015FB04F5ADB295423FF67AAE2546A34683
:103D50006246099CDDE9076C8EE4069C11FB02F1CA
:103D600089B2A1423FF65DAF15469346059E089C79
:103D70006246DDF81CC0B8E695B256E5CC340020AA
:103D80008C000020CD340020DDE90B01069A824230
:103D900034BF13460B460DEB4303B3F84020A38812
:103DA0009B1A03EBD37306EB63039EB20135ADB2EE
:103DB0003BE5002D3FF4EAAE4A4EAB4695E6069B46
:103DC00026880133DBB2069363690AEB0B021FFA04
:103DD00082FA002BEAD01B78012BD5D0022BE5D13B
:103DE000DDE90B01069A824234BF13460B460DEB08
:103DF0004303B3F84020A38833449B1A9EB2D5E70F
:103E0000DDE90B17884234BF02463A460DEB420209
:103E1000B2F84020ACEB020202EBD27206EB620277
:103E200096B2C3E46246DDE907C45AE66246DDE9BC
:103E300008C45DE7A388BDF840105B1A03EBD37399
:103E40000EEB63031FFA83FE6DE4E688F11A01EBC3
:103E5000D1710AEB6101574689B29E4288BF0F4675
:103E6000BA4658E42388ADF8402001219E460B91C4
:103E70002B4610463FE4002A7FF43AAFADF84020CD
:103E80007CE60235ADB2D0E4002A3FF4E5AD102562
:103E9000144EAB46844628E6DDE90B02069F8742B6
:103EA00034BF3946114620AA02EB410131F8401CCB
:103EB000A8EB010202EBD27206EB620296B209E5B0
:103EC0002388ADF840209E46BFE60235A8427FF425
:103ED00079AE00E6059B0EF1020E73457FF474ADDA
:103EE00000E700BFCC34002098B10A490A6882B1CB
:103EF00008B5437A022B07D8DFF81CC05CF82330E2
:103F000013B1984703490A68BDE80840104601F01C
:103F10003DB97047D4350020D03006082DE9F04176
:103F20008289438982B0D4180092023C524215B271
:103F300024B2002201920F46641B1146064601F08E
:103F40005DF9C4F34F124FF6FF739A4226D0184B17
:103F5000B2892F44234003EB0708FAB13C46002501
:103F600005E00135ABB29A4204F1FF3411D9002CBF
:103F7000F7DB7389A342F4DDAAB20723A1B230466E
:103F800001F022F90135B289ABB29A4204F1FF3453
:103F9000EDD8474502D02037002ADFD1054A136803
:103FA00030460133136002B0BDE8F04101F0EEB8D5
:103FB000E0FF1F00D835002038B501F0E1F860B10E
:103FC0000546002421B22846FFF7A8FF0134182037
:103FD00007F070FC202CF5D1F3E738BD70B5042054
:103FE00001F0A6FB38B103681B6823B1984710B1F4
:103FF0004FF4E13401E04FF41654002017F0D2FFE3
:104000000546012017F0CEFF064665B158B121469E
:10401000284618F029F830B92146304618F024F81F
:1040200008B9014B1C6070BD90000020FEE700BF86
:1040300008B5164A164B934208D2013AD21A22F01A
:10404000030214490432184619F00BFB124A134BB1
:10405000934208D2013AD21A22F00302043200211C
:10406000184619F0A4FA0E4A0E4B934208D2013AB0
:10407000D21A22F0030204320021184619F097FAEE
:1040800000F06EFC00F038FAFEE700BF2C030020C1
:104090000000002078900708A4B001203003002021
:1040A000409500100000001000B51B481B4901227C
:1040B00085B00023016002764FF48031C261426115
:1040C000174A0361CDE90033CDE90233C0E901139A
:1040D00080F82030C36080F830300023C0E90A2324
:1040E00002F0BCF860B99FED0A7B00230A480293F6
:1040F00069468DED007B02F041FB20B905B000BDA3
:1041000000F012FAEFE700F00FFA05B000BD00BFB3
:104110000500000001000000E03500200020014003
:104120000100000F0000000000B501681C4B89B0C1
:1041300000229942CDE90222CDE90422069201D063
:1041400009B000BD03F58C330092586C40F48070C8
:104150005864586C00F48070009000980192186BBD
:1041600040F0010018631B6B0E489FED0B7B03F0C2
:10417000010302A901938DED027B019B03F0C2FFB5
:1041800000220921122002F0B9FB122002F0E8FB04
:1041900009B000BDAFF30080200000000300000064
:1041A0000020014000000240054808B5054B0360AF
:1041B00002F0F6FB00B908BDBDE8084000F0B4B954
:1041C00028360020003002400A4B02689A4200D094
:1041D000704782B000220192D3F8302842F4805216
:1041E000C3F83028D3F8303803F480530193019B8F
:1041F00002B070470030024010B582B00024204B5E
:104200000094196B41F480011963186B00F480006D
:10421000009000980194186B40F4001018631B6B19
:1042200003F400132246072101930C20019B02F0A6
:1042300065FB0C2002F094FB22460621382002F098
:104240005DFB382002F08CFB22460721392002F06A
:1042500055FB392002F084FB224607213A2002F068
:104260004DFB3A2002F07CFB224607213B2002F066
:1042700045FB3B2002B0BDE8104002F071BB00BF1F
:104280000038024030B500248FB0CDE90844CDE9B4
:104290000A44864B00940C941A6B854842F0100235
:1042A0001A631A6B02F010020092009A01941A6BC2
:1042B00042F004021A631A6B02F004020192019A9E
:1042C00002941A6B42F020021A631A6B02F0200269
:1042D0000292029A03941A6B42F080021A631A6BDC
:1042E00002F080020392039A04941A6B42F00102D6
:1042F0001A631A6B02F001020492049A05941A6B75
:1043000042F002021A631A6B02F002020592059A49
:1043100006941A6B42F008021A631A6B02F0080244
:104320000692069A07941A6B42F040021A631B6BBE
:1043300003F04003079322467F21079B04F0C6F950
:1043400022465C484EF2010104F0C0F922465A4868
:1043500040F2FF7104F0BAF92246584840F2C231E7
:1043600004F0B4F9224656484CF2FB2104F0AEF9B1
:10437000224654484FF4807104F0A8F9224652486E
:104380004FF41641012504F0A1F97F2308A94848FC
:1043900008930A9409950B9503F0B4FE4FF460431B
:1043A00008A944480893CDE909540B9403F0AAFEE8
:1043B00040F2FF7308A940480893CDE909540B95D2
:1043C00003F0A0FE08A93B48CDE90855CDE90A4510
:1043D00003F098FE022308A938480893CDE9095450
:1043E0000B9403F08FFE08A94FF4C07200233048ED
:1043F0000A95CDE9082303F085FE08A94FF4E052A1
:104400004FF404132A480A95CDE9082303F07AFEF5
:104410004FF4807208A94FF4041329480A95CDE996
:10442000082303F06FFE4FF4424308A92448089381
:10443000CDE909540B9403F065FE4FF4807308A98D
:1044400020480893CDE909540B9403F05BFEFB234D
:1044500008A91B480893CDE909540B9503F052FEB7
:104460004FF4164308A918480893CDE909540B9551
:1044700003F048FE4FF4707308A91048CDE90835E1
:10448000CDE90A4503F03EFE22460821172002F03E
:1044900035FA172002F064FA22460821282002F09B
:1044A0002DFA282002F05CFA0FB030BD003802402F
:1044B00000100240000802400014024000040240C4
:1044C000000C024000000240001802400848094960
:1044D00010B5062240F6FF73C0E90012836004F0B5
:1044E00005F900B910BDBDE8104000F01DB800BFCF
:1044F000303600200030004008B5074B074A9A606C
:1045000062B601F061FE17F063FB0549054806F04D
:1045100041FEFEF72DF9FEE700ED00E00000040883
:1045200010900708708F070872B6FEE700B51B48A9
:104530001B4987B07F2200238260FF22CDE901332F
:10454000CDE90333C0E90013C0E90323C0E9053313
:104550000593009304F096FCA8B900220F48ADF82B
:10456000042001A9CDE904228DF8062004F004FD01
:1045700080B90C4B094800930022694604F0B0FD55
:1045800020B907B000BDFFF7CFFFE6E7FFF7CCFF8C
:1045900007B000BDFFF7C8FFEBE700BF3C360020C7
:1045A000002800400101010000B50E4A016885B0F5
:1045B00000239142CDE9013301D005B000BD0222B4
:1045C0004FF4007368460092039304F0BFFB28B9D0
:1045D000054B0122C3F83C2E05B000BDFFF7A4FF38
:1045E000F6E700BF002800400000474210B50F4921
:1045F0000F4C4FF48272C4E900124FF4007018217E
:104600000023C4E906010A222046C4E90233C4E9B2
:104610000433C4E90833C4E90A3204F057FF00B98F
:1046200010BDBDE81040FFF77FBF00BF0030014064
:10463000203700200000000010B501683E4A88B015
:1046400000239142CDE90233CDE90433069301D032
:1046500008B010BD02F5843200930446506C40F45B
:1046600080505064506C00F480500090009801938A
:10467000106B40F002001063126B9FED2D7B02F077
:104680000202019203200522CDE9050202A92B486E
:10469000DDF804C08DED027B03F034FD284A294883
:1046A0004FF0C0610023C2E9000140204FF4806157
:1046B000C2E9033190604FF480311046C2E90533FE
:1046C000C2E90731536202F09BF91D4A28BB1E4B19
:1046D0001E48A26494634FF0C0620021C3E9000247
:1046E0004FF48060C3E904014FF480321846C3E9F7
:1046F0000211C3E906111A62596202F081F9124BE4
:1047000078B9E3640022052123209C6302F0F6F8C7
:10471000232002F025F908B010BDFFF705FF084A75
:10472000D5E7FFF701FF084BEBE700BFAFF30080D1
:104730003800000002000000003001400004024088
:10474000BC360020586402405C36002010640240F1
:1047500082B00E4B00220092596C41F480415964A2
:10476000586C00F48040009000980192186C40F062
:10477000805018641B6C03F080530193019B0F2140
:104780006FF0010002B002F0B9B800BF003802407B
:1047900030B58BB0244B002204921A6C42F02002F8
:1047A0001A641B6C03F020030493054603A905A8B3
:1047B000049B04F0ABFA089BD3B904F087FA0346D4
:1047C0001A4A1B481B49A2FB03239B0C013B0022F6
:1047D000C0E9001340F2E73302618260826104465F
:1047E000C36005F0F1FC024630B110460BB030BD9D
:1047F00004F06CFA4300E3E7204605F09DFD024615
:104800000028F2D10190372002F0AAF80F2D019A6A
:1048100001D90122E9E72946372002F06FF8064B5B
:10482000019A1D60E1E700BF0038024083DE1B43B0
:10483000783700200014004034010020D0E9012125
:104840000F4B10B404681C605A60C2689960DA604B
:10485000D0E9051204691C615961C1699A61D96185
:10486000084A0949094BD0F818C00068C2F800C0CE
:104870000860074A996A1160064A9B6B1360FEE75D
:10488000D0370020CC370020C037002000ED00E0FA
:10489000C8370020C43700201EF0040F0CBFEFF310
:1048A0000880EFF30980FFF7C9BF00BFFEE700BF34
:1048B000FEE700BFFEE700BFFEE700BF704700BF96
:1048C0000120704708B518F0C3FE162303604FF0AF
:1048D000FF3008BD08B518F0BBFE16230360FEE7E5
:1048E00070B5161E07DD0C468D19AFF3008004F875
:1048F000010BA542F9D1304670BD00BF4FF0FF302B
:10490000704700BF4FF400534B600020704700BF5A
:1049100001207047002070470D490E4ADFF83CC067
:1049200008B50B68A2EB0C022BB11844904207D8D3
:104930000860184608BD084B0B6018449042F7D930
:1049400018F086FE0C2303604FF0FF33184608BDB5
:10495000F037002000000220A8B00120000A00006B
:10496000034AD2F8883043F47003C2F888307047A5
:1049700000ED00E000B51B494FF0804287B00A60AF
:1049800042F2CF0200234A6041F28732C1E902328B
:1049900008468022CDE90233CDE90433CDE9003366
:1049A0000B618A6105F010FC90B94FF480530D48FB
:1049B000029302A905F0FAFC88B9002200230948F5
:1049C0006946CDE9002305F04BFE20B907B000BDD4
:1049D000FFF7AAFDE9E7FFF7A7FD07B000BDFFF766
:1049E000A3FDEAE78438002000B51A491A4A87B0C7
:1049F0000A60532200234A6040F2F312C1E90232F6
:104A000008468022CDE90233CDE90433CDE90033F5
:104A10000B618A6105F0D8FB90B94FF480530D48C3
:104A2000029302A905F0C2FC88B9002200230948BC
:104A30006946CDE9002305F013FE20B907B000BD9B
:104A4000FFF772FDE9E7FFF76FFD07B000BDFFF765
:104A50006BFDEAE73C3800200004004000B51A492D
:104A60001A4A87B00A60532200234A601322C1E920
:104A7000023208468022CDE90233CDE90433CDE984
:104A800000330B618A6105F09FFB90B94FF48053AE
:104A90000D48029302A905F089FC88B90022002381
:104AA00009486946CDE9002305F0DAFD20B907B0D1
:104AB00000BDFFF739FDE9E7FFF736FD07B000BDA0
:104AC000FFF732FDEAE700BFF4370020000800409E
:104AD00000B50368B3F1804F85B007D0254A9342F3
:104AE0001BD0254A93422ED005B000BD03F50E33EE
:104AF00000220192196C41F0010119641B6C03F052
:104B00000103019305211C20019B01F0F7FE1C20ED
:104B100005B05DF804EB01F023BF184B00220292B0
:104B2000196C41F0020119641B6C03F0020302933B
:104B300005211D20029B01F0E1FE1D2005B05DF85E
:104B400004EB01F00DBF0D4B00220392196C41F0F4
:104B5000040119641B6C03F00403039305211E2058
:104B6000039B01F0CBFE1E2005B05DF804EB01F0C5
:104B7000F7BE00BF000400400008004000380240BB
:104B800010B50B480B4C4FF416510023C4E900013B
:104B90000C222046C4E90233C4E90432C4E90633D6
:104BA00005F0A4FD00B910BDBDE81040FFF7BCBC86
:104BB00000100140803A002010B50B480B4C4FF418
:104BC00016510023C4E900010C222046C4E9023337
:104BD000C4E90432C4E9063305F088FD00B910BD0C
:104BE000BDE81040FFF7A0BC00480040383A002064
:104BF00010B50B480B4C4FF416510023C4E90001CB
:104C00000C222046C4E90233C4E90432C4E9063365
:104C100005F06CFD00B910BDBDE81040FFF784BC85
:104C200000140140F039002030B5026878498DB099
:104C300000238A42CDE90633CDE9083304460A93BE
:104C400008D074498A4249D073498A4200F0898069
:104C50000DB030BD714A0093506C40F010005064AC
:104C6000506C00F01000009000980193106B40F021
:104C700001001063126B9FED607B02F00102019254
:104C800003200722CDE9090206A96548019D654D6B
:104C90008DED067B03F036FA63494FF00062002386
:104CA000C5E9001228464FF48062C5E90233C5E920
:104CB0000423C5E90633C5E9083301F0A1FE002845
:104CC00040F0918000220721E5632520AC6301F0CC
:104CD00015FE252001F044FE0DB030BD4F4A029371
:104CE000106C40F480201064106C00F4802002905E
:104CF00002980393106B40F002001063126B9FED5B
:104D0000407B02F00202039203200722CDE9090250
:104D100006A94648039D464D8DED067B03F0F2F94A
:104D200044494FF000620023C5E9001228464FF4C1
:104D30008062C5E90233C5E90423C5E90633C5E944
:104D4000083301F05DFE002850D100220721E56301
:104D50002720AC6301F0D2FD272001F001FE0DB049
:104D600030BD2E4A0493506C40F020005064506CCB
:104D700000F02000049004980593106B40F00400AC
:104D80001063126B9FED207B02F00402059203205A
:104D90000822CDE9090206A92748059D274D8DED7A
:104DA000067B03F0AFF926494FF020620023C5E9E6
:104DB000001228464FF48062C5E90233C5E9042396
:104DC000C5E90633C5E9083301F01AFE88B90022A7
:104DD0000721E5634720AC6301F090FD472001F017
:104DE000BFFD0DB030BDFFF79FFB6BE7FFF79CFBEE
:104DF000ABE7FFF799FBEAE70006000002000000BE
:104E0000000C000002000000C000000002000000D2
:104E100000100140004800400014014000380240EA
:104E2000000002408C39002040640240000402402F
:104E30002C3900202860024000080240CC380020B5
:104E40002864024000B52A4903688B4283B007D02A
:104E500028498B421CD028498B4231D003B000BD79
:104E6000DFF8A4C00190DCF84430244823F010039C
:104E70004FF4C061CCF8443003F01EFB019AD06BB4
:104E800001F052FE252003B05DF804EB01F076BD81
:104E9000DFF874C00190DCF84030194823F4802317
:104EA0004FF44061CCF8403003F006FB019AD06B20
:104EB00001F03AFE272003B05DF804EB01F05EBD7F
:104EC000DFF844C00190DCF844300E4823F02003A2
:104ED000C021CCF8443003F0EFFA019AD06B01F016
:104EE00023FE472003B05DF804EB01F047BD00BF8F
:104EF0000010014000480040001401400000024042
:104F000000040240000802400038024008B902488C
:104F100070470020704700BFC83A002020B34B1EE6
:104F2000C72B21D800B50A46B7B00146901C012313
:104F30004FF0FD0C8DF80A000DF10D00ADF808C022
:104F400001928DF80B308DF80C3018F08AFB02209E
:104F500017F028F830B1019A0532642392B202A901
:104F600017F02CF837B000BD704700BF00B5022322
:104F700083B002460849009118468DF804308DF838
:104F8000052017F00FF820B164230622694617F0B8
:104F900015F803B000BD00BFFD0003010246082163
:104FA000002016F079BC00BF08B5002016F0FAFF0B
:104FB000044917F02BF80022BDE8084008211046EC
:104FC00016F06ABC9D4F040800487047C83F002097
:104FD000094B0A491B68087893F82420DFF820C0A1
:104FE000824200F101038CBF0022012203F007037B
:104FF000CCF880220B707047DC440020C9440020AC
:105000000080414208B5012016F074FE16F0A0FEA3
:10501000022016F06FFE16F09BFE16F061FC0549AB
:10502000012016F05FFEBDE808400349022016F09B
:1050300059BE00BF3D500408D14F0408024B012166
:10504000186806F057BC00BFE044002010B50020EF
:105050008AB006F03DFC0E4A0E4B1468186001221F
:1050600084F825200021202202A818F0A0FADFF8F9
:105070002CE00948CDF804E04FF4806C302301AAFD
:105080002146CDE906C306F09BFB0AB010BD00BF68
:10509000DC440020E0440020A150040880F9050809
:1050A0002DE9F84F0446012016F024FE16F02CFEE0
:1050B000022016F01FFE16F027FEDFF8ACB0DFF876
:1050C000ACA0DFF8AC90264D264E4FF0000801272B
:1050D0002AE006F051FB2268D9F80030526829789E
:1050E0000133C9F800302046904706F02FFB1E2000
:1050F00016F00EFE2368C6F880729B680BB1287804
:105100009847C6F88C7200BF00BF1E20C6F88C827C
:1051100016F010FE06F030FB2B78627A0133B3FBF9
:10512000F2F102FB11332B704FF0FF33002201210B
:10513000DBF8000006F006FC06F008FB9AF80030E9
:10514000002BC6D08AF8008006F016FB2268136890
:1051500084F825802046002BBED098472268BBE704
:10516000C844002000804142E0440020D444002094
:10517000CC440020014B1860704700BFDC44002085
:10518000014B1868704700BFDC440020A0B100B597
:1051900083B0019006F0DAFA084A0949019B012020
:1051A00010700A6807489B69036001320A6003B007
:1051B0005DF804EB06F0E0BA704700BFD44400206D
:1051C000D0440020D8440020B0F80AC08C450DD946
:1051D00010B5B0F80CE0964507D984690CFB024283
:1051E0004FF0010C535480F825C010BD704700BF2C
:1051F000082928BF082180F8241070472DE9F843BA
:1052000005469DF82490B5F80AC0BDF820008C45ED
:1052100025D9B5F80CE0964521D91446ACEB010729
:10522000BFB2CA1800EB0408624598BF1F46F0459C
:105230000E4616D9AEEB040E14FA8EF801E0B5F85E
:105240000AC0A8690CFB046C3A4649466044013424
:1052500018F0ADF9A045F2D1012385F82530BDE85D
:10526000F8830028EDD1F7E72DE9F04F8846418912
:1052700083B04145BDF83070DDF834B09DF838603A
:1052800038D98589954235D908EB03048C4231D849
:1052900007EB0209A94514462CD847B33BB303F1E9
:1052A000070A00278025CDF80490C44600220BEBA6
:1052B000070EC2F3CC0902F007011EF8099045FA67
:1052C00001F119EA010F02F1010206D0B0F80A90CB
:1052D000816904FB091101F80C6093420CF1010C87
:1052E000E7D1019A0134A24207EBEA07DDD101239D
:1052F00080F8253003B0BDE8F08F00BFF0B5858998
:10530000EDB14489DCB1DFF838E0D0E906760EEB88
:1053100045054FF0000C3EF8023B07EB0C0233440E
:105320000233101912F8011B03F8021C824203F128
:105330000203F7D1A444AE451FFA8CFCEBD1F0BDBB
:10534000000000102DE9F047468A86B3C569837BCB
:1053500006FB01552E4463B3DFF884A0B0F810E0DB
:105360001E4C03EB43030AEB831C4FF001094FF083
:10537000000829465246087800EB400002EBC003C3
:1053800052F830005F68B861D8689F688761D3E9D8
:105390000430C032944571448361ECD1C4F88492E6
:1053A00000BF00BF0135B542C4F88482E1D1BDE839
:1053B000F0870A490120C1F8840200BF00BF6A1CBF
:1053C0009642C1F88432F2D0C1F8840200BF00BF17
:1053D0000235AE42C1F88432EDD1E8E700804142A7
:1053E000C0900010084B00F0010CC0F34001C0F366
:1053F0008002C0F3C000C3F890C2C3F89412C3F88F
:105400009822C3F89C027047008041422DE9F84F72
:105410004A4E4B4B4B4C33603046FFF7ABFE0022FD
:10542000C2F30B1002F0070382F0080103EBC00384
:1054300003EB4303C1F3C001013201EBC313602A44
:1054400024F8023FECD196F80EC0BCF1000F73D0E7
:10545000DFF80481DFF804B1DFF804A14FF00009A0
:10546000394B38F8395033F83940384B5AF839202D
:1054700033F83900364BCBF8185053F83910354B08
:10548000CBF8384053F83930CBF8485009F10109CE
:105490002F0426044FEA004ECC45CBF80070CBF821
:1054A0003070CBF85040CBF86070CBF80410CBF8DC
:1054B0001C10CBF83410CBF84C10CBF86410CBF8A0
:1054C0001430CBF82C30CBF84430CBF85C30CBF830
:1054D0000C20CBF82420CBF83C20CBF85420CBF880
:1054E0000860CBF82060CBF810E0CBF828E0CBF8D0
:1054F00040E0CBF858E0CBF86C20CBE91C03CBE9BB
:105500001E51CBE92203CBE92642CBE92803CBE9A4
:105510002C42CBE92E03CBF89070CBF86860CBF827
:105520008060CBF8A850CBF88420CBF89410CBF84F
:10553000AC100BF1C00B93D1BDE8F88F98000020A0
:10554000A8330608FEFFFF0F048B0708B48A07087C
:10555000508B0708B08A0708548B0708C0900010CA
:10556000008B070808B500220E21032016F094F9DD
:10557000BDE8084000220F21032016F08DB900BFBE
:1055800002460E21032016F087B900BF02460F2104
:10559000032016F081B900BF10B5194BDFF880E089
:1055A000DFF880C0174C184A184819491861C3E938
:1055B000004EC3E902C25961164BCEF80030CCF858
:1055C000003023601360144B03600B60002213490A
:1055D0004FF4805016F008F8104900224FF4006094
:1055E00016F002F80D4900224FF4806015F0FCFF20
:1055F000BDE81040094900224FF4807015F0F4BF57
:10560000E8440020FC000020D8000020CC0000204E
:10561000C0000020BC330608B4330608295604082D
:10562000F0000020E4000020274B196891F806C024
:10563000012202FA0CF292B290422BD0596891F8F2
:1056400006C0012202FA0CF292B2904228D0996868
:1056500091F806C0012202FA0CF292B2904223D0D5
:10566000D96891F806C0012202FA0CF292B2904277
:105670001ED0196991F806C0012202FA0CF292B20A
:10568000904219D05A69917901238B409BB2834291
:1056900016D070478A68002AD0D0104606F0C6BAE5
:1056A0008A68002AD3D0F8E78A68002AD8D0F4E7BD
:1056B0008A68002ADDD0F0E78A68002AE2D0ECE7A9
:1056C0009268002AE9D17047E844002008B5817942
:1056D000407916F0F3F880F00100C0B208BD00BFB9
:1056E000806830B108B506F06FFAB0FA80F0400972
:1056F00008BD704770B5084C04F1180654F8045BF7
:105700002B685B6800221146012013B106F0FAF9FC
:10571000A860A642F2D170BDE844002008B58179A6
:10572000407916F0CBF880F00100C0B208BD00BF90
:1057300005289ABF024B53F820000020704700BF95
:10574000E844002010B582B00446019115F04CFBEE
:105750000199206040F601036160238102B010BD11
:10576000082A28BF0822082928BF0821012A38BF93
:105770000122012938BF0121914228BF114601723F
:105780004272704770B5064682B008240025306822
:10579000642201A915F02CFB08B9019B1D44013CB2
:1057A000F5D1ED08B5F57A6F0F4B707A0F4A28BF27
:1057B0004FF47A65A3FB05356D09082D337A11780E
:1057C0001ABFC5F10805EDB20125AB4238BF2B4623
:1057D000834228BF0346994218BF7168137018BFEF
:1057E00081F8243002B070BDD34D62100045002016
:1057F00098B1CB688BB18A687AB1D1F810C0BCF18E
:10580000000F0AD000B5D1E900E1C0E90423C0E9E6
:1058100002E1C0F818C0002000BD4FF0FF30704713
:1058200070B5446882B0002301932CBB83680546A1
:1058300003B1984720232B60002607E0019B03F06B
:105840001F03A34215D00134202C0BD06B6901AA91
:105850001921204698470028F0DA0134202C6FF0F7
:105860000406F3D12B681F2B09D81EB16FF004007A
:1058700003E02C6001236B60002002B070BD6FF06C
:105880000200FAE730B583B000254369019504466C
:1058900001AA006801219847A8423BDB63692068A0
:1058A00001AA01219847002834DB019B5B072AD518
:1058B0006369206801AA2946984700282ADB019BD2
:1058C000D80413D56369206801AA102198470028DD
:1058D00020DB019BDA0619D503F00603042B17D051
:1058E0004BB1062B0CD1042003B030BD990403F456
:1058F000807203D562B9032003B030BD002AF2D113
:10590000052003B030BD012003B030BD0620F8E70C
:105910000220F6E76FF00400F3E700BF10B582B095
:1059200015F0AAFBC82403E015F0DCFA013C0ED008
:1059300001AB02221148012102F08CF8019B4FF6C5
:10594000FF7293424FF03200EED0002BECD00C49A6
:105950000C48FFF74DFF0B48FFF762FF28B90A48D4
:1059600002B0BDE8104015F081BBFEF7DDFD064832
:1059700002B0BDE8104015F079BB00BFD86101202E
:1059800008010020044500208D59040808B5054889
:10599000FFF778FF831E032B9ABFC0F10600C0B249
:1059A000002008BD04450020024A0349034815F0C1
:1059B000F9BF00BFC4330608C8330608CC33060855
:1059C000002070474068704700B583B0019015F023
:1059D00031FF15F033FF01980221007B15F034FFF1
:1059E000019015F029FF019803B000BD00B5844671
:1059F00083B0DCF808C00193104661441A4617F0E2
:105A000030FE019803B000BD2DE9F047DD1CAC0865
:105A100025F003059846EB1D23F0070300AFADEB1F
:105A2000030D866891468A462A46FF21684617F08C
:105A3000BEFD42464946684617F013FE15F0FAFED1
:105A400015F0FCFE74B15644043D04366B46ADF1CE
:105A500004046D44F61A301954F8041F15F00EFFB3
:105A6000AC42F8D115F0E8FE4046BD46BDE8F087EF
:105A70004068704708B5002005F09AFF014B186098
:105A800008BD00BF24560020034A044B10680121C2
:105A9000197005F02FBF00BF2C560020285600209B
:105AA00030B585B0044616F015F8A060002854D033
:105AB000012149F6661308460022ADF8043015F0BE
:105AC000EBFE022201A9A06816F026F80122114679
:105AD000104615F0E1FE0A2015F004FA0025012118
